{
  "contractName": "Ecommerce",
  "abi": [
    {
      "constant": true,
      "inputs": [],
      "name": "sellerOK",
      "outputs": [
        {
          "name": "",
          "type": "bool"
        }
      ],
      "payable": false,
      "stateMutability": "view",
      "type": "function"
    },
    {
      "constant": true,
      "inputs": [],
      "name": "buyerOK",
      "outputs": [
        {
          "name": "",
          "type": "bool"
        }
      ],
      "payable": false,
      "stateMutability": "view",
      "type": "function"
    },
    {
      "inputs": [
        {
          "name": "_seller",
          "type": "address"
        }
      ],
      "payable": false,
      "stateMutability": "nonpayable",
      "type": "constructor"
    },
    {
      "payable": true,
      "stateMutability": "payable",
      "type": "fallback"
    },
    {
      "anonymous": false,
      "inputs": [
        {
          "indexed": false,
          "name": "notification",
          "type": "string"
        }
      ],
      "name": "notify",
      "type": "event"
    },
    {
      "constant": false,
      "inputs": [],
      "name": "proceedToCheckout",
      "outputs": [],
      "payable": false,
      "stateMutability": "nonpayable",
      "type": "function"
    },
    {
      "constant": false,
      "inputs": [
        {
          "name": "_b_name",
          "type": "string"
        },
        {
          "name": "units",
          "type": "uint256"
        },
        {
          "name": "_date",
          "type": "string"
        },
        {
          "name": "p_p_u",
          "type": "uint256"
        }
      ],
      "name": "b_Product_details",
      "outputs": [],
      "payable": false,
      "stateMutability": "nonpayable",
      "type": "function"
    },
    {
      "constant": true,
      "inputs": [],
      "name": "escrow_balance",
      "outputs": [
        {
          "name": "",
          "type": "uint256"
        }
      ],
      "payable": false,
      "stateMutability": "view",
      "type": "function"
    },
    {
      "constant": false,
      "inputs": [],
      "name": "seller_deny_service",
      "outputs": [],
      "payable": false,
      "stateMutability": "nonpayable",
      "type": "function"
    },
    {
      "constant": false,
      "inputs": [],
      "name": "seller_send_product",
      "outputs": [],
      "payable": true,
      "stateMutability": "payable",
      "type": "function"
    },
    {
      "constant": false,
      "inputs": [],
      "name": "b_delivery_received",
      "outputs": [],
      "payable": true,
      "stateMutability": "payable",
      "type": "function"
    },
    {
      "constant": false,
      "inputs": [],
      "name": "withdraw_amount",
      "outputs": [],
      "payable": false,
      "stateMutability": "nonpayable",
      "type": "function"
    }
  ],
  "bytecode": "0x608060405234801561001057600080fd5b506040516020806111548339810180604052602081101561003057600080fd5b8101908080519060200190929190505050336000806101000a81548173ffffffffffffffffffffffffffffffffffffffff021916908373ffffffffffffffffffffffffffffffffffffffff16021790555080600160006101000a81548173ffffffffffffffffffffffffffffffffffffffff021916908373ffffffffffffffffffffffffffffffffffffffff1602179055506000600a60006101000a81548160ff021916908360038111156100e157fe5b02179055505061105e806100f66000396000f3fe6080604052600436106100855760003560e01c80632f141da7116100595780632f141da7146102e2578063332232541461030d57806354f0a1c41461032457806383c8c83314610497578063f57b4e84146104c657610085565b80626a01ac146102a05780631d762b24146102b757806322fb0246146102c157806328d0d223146102cb575b6000809054906101000a900473ffffffffffffffffffffffffffffffffffffffff1673ffffffffffffffffffffffffffffffffffffffff163373ffffffffffffffffffffffffffffffffffffffff161461012a576040517f08c379a0000000000000000000000000000000000000000000000000000000008152600401808060200182810382526021815260200180610f5a6021913960400191505060405180910390fd5b6000600381111561013757fe5b600a60009054906101000a900460ff16600381111561015257fe5b146101c5576040517f08c379a00000000000000000000000000000000000000000000000000000000081526004018080602001828103825260208152602001807f5061796d656e742068617320616c7265616479206265656e206d6164652e2e2e81525060200191505060405180910390fd5b60028001543411610221576040517f08c379a000000000000000000000000000000000000000000000000000000000815260040180806020018281038252602e815260200180610f2c602e913960400191505060405180910390fd5b34600781905550426008819055506001600a60006101000a81548160ff0219169083600381111561024e57fe5b02179055507fa396f8d98c67c164560cb969bf42c7fd20318f6a13d8a83e7a589a61fb1214b660405180806020018281038252603d815260200180610ff6603d913960400191505060405180910390a1005b3480156102ac57600080fd5b506102b56104f5565b005b6102bf61068f565b005b6102c96107a1565b005b3480156102d757600080fd5b506102e0610892565b005b3480156102ee57600080fd5b506102f7610b5b565b6040518082815260200191505060405180910390f35b34801561031957600080fd5b50610322610b7a565b005b34801561033057600080fd5b506104956004803603608081101561034757600080fd5b810190808035906020019064010000000081111561036457600080fd5b82018360208201111561037657600080fd5b8035906020019184600183028401116401000000008311171561039857600080fd5b91908080601f016020809104026020016040519081016040528093929190818152602001838380828437600081840152601f19601f820116905080830192505050505050509192919290803590602001909291908035906020019064010000000081111561040557600080fd5b82018360208201111561041757600080fd5b8035906020019184600183028401116401000000008311171561043957600080fd5b91908080601f016020809104026020016040519081016040528093929190818152602001838380828437600081840152601f19601f82011690508083019250505050505050919291929080359060200190929190505050610d29565b005b3480156104a357600080fd5b506104ac610d8c565b604051808215151515815260200191505060405180910390f35b3480156104d257600080fd5b506104db610d9f565b604051808215151515815260200191505060405180910390f35b600160009054906101000a900473ffffffffffffffffffffffffffffffffffffffff1673ffffffffffffffffffffffffffffffffffffffff163373ffffffffffffffffffffffffffffffffffffffff16146105b8576040517f08c379a000000000000000000000000000000000000000000000000000000000815260040180806020018281038252601e8152602001807f596f752063616e6e6f74206861636b206d7920636f6e74726163742e2e2e000081525060200191505060405180910390fd5b600160038111156105c557fe5b600a60009054906101000a900460ff1660038111156105e057fe5b146105ea57600080fd5b6000809054906101000a900473ffffffffffffffffffffffffffffffffffffffff1673ffffffffffffffffffffffffffffffffffffffff166108fc3073ffffffffffffffffffffffffffffffffffffffff16319081150290604051600060405180830381858888f19350505050158015610668573d6000803e3d6000fd5b506003600a60006101000a81548160ff0219169083600381111561068857fe5b0217905550565b600160009054906101000a900473ffffffffffffffffffffffffffffffffffffffff1673ffffffffffffffffffffffffffffffffffffffff163373ffffffffffffffffffffffffffffffffffffffff1614610752576040517f08c379a000000000000000000000000000000000000000000000000000000000815260040180806020018281038252601e8152602001807f43616e206265206163636573736564206f6e6c792062792073656e646572000081525060200191505060405180910390fd5b6001600381111561075f57fe5b600a60009054906101000a900460ff16600381111561077a57fe5b1461078457600080fd5b6001600a60026101000a81548160ff021916908315150217905550565b6000809054906101000a900473ffffffffffffffffffffffffffffffffffffffff1673ffffffffffffffffffffffffffffffffffffffff163373ffffffffffffffffffffffffffffffffffffffff16146107fa57600080fd5b6001600381111561080757fe5b600a60009054906101000a900460ff16600381111561082257fe5b1461082c57600080fd5b6001600a60016101000a81548160ff0219169083151502179055506002600a60006101000a81548160ff0219169083600381111561086657fe5b021790555060011515600a60029054906101000a900460ff16151514156108905761088f610db2565b5b565b42600981905550600160038111156108a657fe5b600a60009054906101000a900460ff1660038111156108c157fe5b146108cb57600080fd5b6000809054906101000a900473ffffffffffffffffffffffffffffffffffffffff1673ffffffffffffffffffffffffffffffffffffffff163373ffffffffffffffffffffffffffffffffffffffff161461092457600080fd5b60001515600a60019054906101000a900460ff16151514801561095a575060011515600a60029054906101000a900460ff161515145b156109e457600160009054906101000a900473ffffffffffffffffffffffffffffffffffffffff1673ffffffffffffffffffffffffffffffffffffffff166108fc3073ffffffffffffffffffffffffffffffffffffffff16319081150290604051600060405180830381858888f193505050501580156109de573d6000803e3d6000fd5b50610b35565b600a60019054906101000a900460ff168015610a0d5750600a60029054906101000a900460ff16155b8015610a2157506202a30060085401600954115b15610b345760003073ffffffffffffffffffffffffffffffffffffffff16311415610ab4576040517f08c379a00000000000000000000000000000000000000000000000000000000081526004018080602001828103825260198152602001807f416c7265616479206d6f6e6579207472616e736665727265640000000000000081525060200191505060405180910390fd5b6000809054906101000a900473ffffffffffffffffffffffffffffffffffffffff1673ffffffffffffffffffffffffffffffffffffffff166108fc3073ffffffffffffffffffffffffffffffffffffffff16319081150290604051600060405180830381858888f19350505050158015610b32573d6000803e3d6000fd5b505b5b6003600a60006101000a81548160ff02191690836003811115610b5457fe5b0217905550565b60003073ffffffffffffffffffffffffffffffffffffffff1631905090565b60016003811115610b8757fe5b600a60009054906101000a900460ff166003811115610ba257fe5b14610bf8576040517f08c379a0000000000000000000000000000000000000000000000000000000008152600401808060200182810382526030815260200180610fc66030913960400191505060405180910390fd5b60011515600a60019054906101000a900460ff161515148015610c2e575060011515600a60029054906101000a900460ff161515145b610c83576040517f08c379a000000000000000000000000000000000000000000000000000000000815260040180806020018281038252604b815260200180610f7b604b913960600191505060405180910390fd5b600160009054906101000a900473ffffffffffffffffffffffffffffffffffffffff1673ffffffffffffffffffffffffffffffffffffffff166108fc3073ffffffffffffffffffffffffffffffffffffffff16319081150290604051600060405180830381858888f19350505050158015610d02573d6000803e3d6000fd5b506003600a60006101000a81548160ff02191690836003811115610d2257fe5b0217905550565b8360026000019080519060200190610d42929190610e86565b50826002600101819055508160026004019080519060200190610d66929190610e86565b508060026003018190555060026001015460026003015402600280018190555050505050565b600a60029054906101000a900460ff1681565b600a60019054906101000a900460ff1681565b600a60019054906101000a900460ff168015610dda5750600a60029054906101000a900460ff165b15610e6057600160009054906101000a900473ffffffffffffffffffffffffffffffffffffffff1673ffffffffffffffffffffffffffffffffffffffff166108fc3073ffffffffffffffffffffffffffffffffffffffff16319081150290604051600060405180830381858888f19350505050158015610e5e573d6000803e3d6000fd5b505b6003600a60006101000a81548160ff02191690836003811115610e7f57fe5b0217905550565b828054600181600116156101000203166002900490600052602060002090601f016020900481019282601f10610ec757805160ff1916838001178555610ef5565b82800160010185558215610ef5579182015b82811115610ef4578251825591602001919060010190610ed9565b5b509050610f029190610f06565b5090565b610f2891905b80821115610f24576000816000905550600101610f0c565b5090565b9056fe456e746572656420616d6f756e74206973206c657373207468617420726571756972656420616d6f756e742e2e2e43616e206f6e6c7920626520616363657373656420627920746865206275796572426f746820627579657220616e642073656c6c6572206d75737420636f6e6669726d2064656c6976657279206265666f72652070726f63656564696e67207769746820636865636b6f7574436865636b6f75742063616e206f6e6c792070726f63656564207768656e206177616974696e672064656c6976657279427579657220686173206465706f73697465642074686520726571756972656420616d6f756e7420696e2074686520457363726f77206163636f756e74a165627a7a723058203921ddd4dfff9a0dbe541f9ba8ec541010ae92971e0094a62de06e3cfae265f90029",
  "source": "//SPDX-License-Identifier: MIT\r\npragma solidity ^0.5.6;\r\ncontract Ecommerce {\r\n    address payable buyer;\r\n    address payable seller;\r\n\r\n    struct item {\r\n        string b_name;\r\n        uint no_units;\r\n        uint total;\r\n        uint price_per_unit;\r\n        string date;\r\n    }\r\n    item product;\r\n\r\n    uint balance; //escrow balance amount\r\n    uint start; //starting time\r\n    uint end; //ending time\r\n\r\n    event notify(string notification); //notification to the sender\r\n\r\n    enum state {\r\n        AWAITING_BUYER_PAYMENT,\r\n        AWAITING_DELIVERY,\r\n        AWAITING_FUND_RELEASE,\r\n        COMPLETE\r\n    } //state of the smart contract\r\n    state current;\r\n\r\n    bool public buyerOK;\r\n    bool public sellerOK;\r\n\r\n    constructor(\r\n        address payable _seller //buyer is the deployer\r\n    ) public {\r\n        buyer = msg.sender;\r\n        seller = _seller;\r\n        current = state.AWAITING_BUYER_PAYMENT;\r\n    }\r\n\r\n    function proceedToCheckout() public {\r\n    require(current == state.AWAITING_DELIVERY, \"Checkout can only proceed when awaiting delivery\");\r\n    require(buyerOK == true && sellerOK == true, \"Both buyer and seller must confirm delivery before proceeding with checkout\");\r\n\r\n    // Transfer funds to the seller\r\n    seller.transfer(address(this).balance);\r\n\r\n    // Update contract state to indicate completion\r\n    current = state.COMPLETE;\r\n    }\r\n\r\n\r\n    function b_Product_details(\r\n        string memory _b_name,\r\n        uint units,\r\n        string memory _date,\r\n        uint p_p_u\r\n    ) public {\r\n        product.b_name = _b_name;\r\n        product.no_units = units;\r\n        product.date = _date;\r\n        product.price_per_unit = p_p_u;\r\n        product.total = product.price_per_unit * product.no_units; //total amount to be paid\r\n    }\r\n\r\n    function() external payable //fallback function\r\n    {\r\n        require(msg.sender == buyer, \"Can only be accessed by the buyer\");\r\n        require(\r\n            current == state.AWAITING_BUYER_PAYMENT,\r\n            \"Payment has already been made...\"\r\n        );\r\n        require(\r\n            msg.value > product.total,\r\n            \"Entered amount is less that required amount...\"\r\n        );\r\n        balance = msg.value;\r\n        start = block.timestamp;\r\n        current = state.AWAITING_DELIVERY;\r\n        emit notify(\r\n            \"Buyer has deposited the required amount in the Escrow account\"\r\n        );\r\n    }\r\n\r\n    function escrow_balance()\r\n        public\r\n        view\r\n        returns (\r\n            uint //returns the balance of the contract\r\n        )\r\n    {\r\n        return address(this).balance;\r\n    }\r\n\r\n    function seller_deny_service() public {\r\n        require(msg.sender == seller, \"You cannot hack my contract...\");\r\n        require(current == state.AWAITING_DELIVERY);\r\n        buyer.transfer(address(this).balance);\r\n        current = state.COMPLETE;\r\n    }\r\n\r\n    function seller_send_product() public payable {\r\n        require(msg.sender == seller, \"Can be accessed only by sender\");\r\n        require(current == state.AWAITING_DELIVERY);\r\n        sellerOK = true;\r\n    }\r\n\r\n    function b_delivery_received() public payable {\r\n        require(msg.sender == buyer);\r\n        require(current == state.AWAITING_DELIVERY);\r\n        buyerOK = true;\r\n        current = state.AWAITING_FUND_RELEASE;\r\n        if (sellerOK == true) release_fund();\r\n    }\r\n\r\n    function release_fund() private {\r\n        if (buyerOK && sellerOK) seller.transfer((address(this).balance));\r\n        current = state.COMPLETE;\r\n    }\r\n    function withdraw_amount() public {\r\n        end = block.timestamp;\r\n        require(current == state.AWAITING_DELIVERY);\r\n        require(msg.sender == buyer);\r\n        if (buyerOK == false && sellerOK == true)\r\n            seller.transfer(address(this).balance);\r\n        else if (\r\n            buyerOK && !sellerOK && end > start + 172800\r\n        ) //time exceeds 30 days after the buyer has deposited in the escrow contract\r\n        {\r\n            require(address(this).balance != 0, \"Already money transferred\");\r\n            buyer.transfer(address(this).balance);\r\n        }\r\n        current = state.COMPLETE;\r\n    }\r\n}\r\n",
  "sourcePath": "C:\\Users\\HP\\OneDrive\\Desktop\\Block_Cart\\Ecommerce (Frontend + Backend) Using MERN\\MERN_Ecommerce\\web\\contracts\\ecommerce.sol",
  "compiler": {
    "name": "solc",
    "version": "0.5.6+commit.b259423e.Emscripten.clang"
  },
  "schemaVersion": "3.4.16",
  "updatedAt": "2024-04-06T08:39:58.274Z",
  "networkType": "ethereum",
  "devdoc": {
    "methods": {}
  },
  "userdoc": {
    "methods": {}
  }
}